:020000040800F2
:1000000000000220C10400080505000805050008DD
:1000100005050008050500080505000800000000AA
:1000200000000000000000000000000005050008BE
:10003000050500080000000005050008050500088A
:100040000505000805050008050500080505000868
:100050000505000805050008050500080505000858
:100060000505000805050008050500080505000848
:100070000505000805050008050500080505000838
:100080000505000805050008050500080505000828
:100090000505000805050008050500080505000818
:1000A0000505000805050008050500080505000808
:1000B00005050008050500080505000805050008F8
:1000C00005050008050500080505000805050008E8
:1000D00005050008050500080505000805050008D8
:1000E00005050008050500080505000805050008C8
:1000F00005050008050500080505000805050008B8
:1001000005050008050500080505000805050008A7
:100110000505000805050008050500080505000897
:100120000505000805050008050500080505000887
:100130000505000805050008050500080505000877
:100140000505000805050008050500080505000867
:100150000505000805050008050500080505000857
:100160000505000805050008050500080505000847
:100170000505000805050008050500080505000837
:10018000050500080505000810B5054C237833B9AE
:10019000044B13B10448AFF300800123237010BD5A
:1001A0003804002000000000D8090008084B10B5F2
:1001B0001BB108490848AFF300800848036803B939
:1001C00010BD074B002BFBD0BDE81040184700BF07
:1001D000000000003C040020D8090008340400207E
:1001E0000000000000F090F94FF001004FF0010115
:1001F0004FEA81114FF0010200F0C0F94FF0010009
:100200004FF001014FEA81214FF0000200F0B6F9F2
:100210004FF001004FF001014FEAC1214FF0000201
:1002200000F0ACF94FF01006A6F101064FF0020005
:100230004FF001014FEA81214FF0000200F09EF9DA
:100240004FF002004FF001014FEA81214FF001020F
:1002500000F094F9002EE7D14FF001004FF00101BA
:100260004FEAC1214FF0010200F088F94FF0080673
:10027000A6F101064FF002004FF001014FEA812183
:100280004FF0000200F07AF94FF002004FF0010148
:100290004FEA81214FF0010200F070F9002EE7D102
:1002A0004FF002004FF001014FEAC1214FF0000270
:1002B00000F064F94FF002004FF001014FEAC12154
:1002C0004FF0010200F05AF94FF000004EF2B00179
:1002D0004FF0010200F052F94FF002004FF001011F
:1002E0004FEA41114FF0010200F048F94FF00100D0
:1002F0004FF001014FEAC1014FF0010200F03EF959
:100300006E4800F0D3F84FF001004FF001014FEAC2
:10031000C1214FF0000200F031F94FF00806A6F1BC
:1003200001064FF002004FF001014FEA81214FF02A
:10033000000200F023F94FF002004FF001014FEAF4
:1003400081214FF0010200F019F9002EE7D14FF0A2
:1003500002004FF001014FEAC1214FF0000200F00E
:100360000DF94FF002004FF001014FEAC1214FF0AB
:10037000010200F003F94FF000004EF2B0014FF01F
:10038000010200F0FBF84FF002004FF001014FEACC
:1003900041114FF0010200F0F1F84FF001004FF071
:1003A00001014FEAC1014FF0010200F0E7F84348B4
:1003B00000F07CF84FF001004FF001014FEAC1213D
:1003C0004FF0010200F0DAF84FF01806A6F101062E
:1003D0004FF002004FF001014FEA81214FF000027F
:1003E00000F0CCF84FF002004FF001014FEA8121FC
:1003F0004FF0010200F0C2F8002EE7D14FF00100EB
:100400004FF001014FEAC1214FF0000200F0B6F8B1
:100410004FF01006A6F101064FF002004FF0010167
:100420004FEA81214FF0000200F0A8F84FF00200DF
:100430004FF001014FEA81214FF0010200F09EF8D8
:10044000002EE7D14FF002004FF001014FEAC12129
:100450004FF0000200F092F84FF002004FF001015F
:100460004FEAC1214FF0010200F088F84FF0000080
:100470004EF2B0014FF0010200F080F84FF00200A0
:100480004FF001014FEA41114FF0010200F076F800
:100490004FF001004FF001014FEAC1014FF001029E
:1004A00000F06CF8054800F001F8A7E600B5002858
:1004B00002D0A0F10100FAE700BD000080F0FA02CE
:1004C000002103E00A4B5B584350043109480A4BB2
:1004D00042189A42F6D3094A02E0002342F8043B4C
:1004E000074B9A42F9D300F03DF9FFF77BFE7047C6
:1004F000D80900080000002038040020380400203B
:1005000054040020FEE7000080B582B000AF012156
:10051000012000F0BDF90121022000F0B9F901210C
:10052000042000F0B5F94EF2B0033B6001233B71AB
:100530000023BB710223FB7100237B713B461946EC
:100540000B4800F063F840F648433B603B461946D1
:10055000084800F05BF84FF442633B603B461946A5
:10056000054800F053F800BF0837BD4680BD00BF06
:1005700000000240000402400008024080B582B042
:1005800000AF0346FB800B46BB801346FB70FB8825
:10059000012B13D0022B20D0002B00D02CE0FB78B5
:1005A000002B05D0BB881946154800F0BDF823E0A4
:1005B000BB881946124800F0C5F81DE0FB78002BF7
:1005C00005D0BB8819460F4800F0AEF814E0BB8890
:1005D00019460C4800F0B6F80EE0FB78002B05D069
:1005E000BB881946084800F09FF804E0BB8819460C
:1005F000054800F0A7F800BF00BF0837BD4680BD22
:1006000000000240000402400008024080B487B0AD
:1006100000AF7860396000237B6100233B610023D9
:10062000FB6000237B6176E001227B6902FA03F321
:100630003B613B681A683B691340FB60FA683B69A1
:100640009A4265D17B681A687B695B00032101FAD5
:1006500003F3DB431A407B681A607B681A683B68C7
:100660001B7919467B695B0001FA03F31A437B6827
:100670001A603B681B79012B03D03B681B79022B66
:100680002ED17B689A687B695B00032101FA03F332
:10069000DB431A407B689A607B689A683B685B79A9
:1006A00019467B695B0001FA03F31A437B689A6081
:1006B0007B685A687B699BB2012101FA03F3DB4333
:1006C0001A407B685A607B685A683B689B79194678
:1006D0007B699BB201FA03F39BB21A437B685A60B1
:1006E0007B68DA687B699BB25B00032101FA03F344
:1006F000DB431A407B68DA607B68DA683B68DB7949
:1007000019467B695B0001FA03F31A437B68DA60E0
:100710007B6901337B617B690F2B85D900BF1C3757
:10072000BD4680BC704700BF80B483B000AF786026
:100730000B467B807A887B689A6100BF0C37BD4688
:1007400080BC704780B483B000AF78600B467B807C
:100750007B881B041A467B689A6100BF0C37BD4634
:1007600080BC704780B500AF124A124B1B6843F043
:10077000010313600F4B00229A600E4A0D4B1B6859
:1007800023F0847323F4803313600A4B0A4A5A60BF
:10079000084A084B1B6823F480231360054B002292
:1007A000DA6000F00DF8054B4FF000629A6000BF70
:1007B00080BD00BF003802401030002400ED00E092
:1007C00080B483B000AF00237B6000233B602D4AE0
:1007D0002C4B1B6843F4803313602A4B1B6803F4D3
:1007E00000333B607B6801337B603B68002B03D1A7
:1007F0007B68B3F5A04FF0D1224B1B6803F40033A4
:10080000002B02D001233B6001E000233B603B68EA
:10081000012B32D11B4A1B4B1B6C43F080531364DA
:10082000194A194B1B6843F480431360154A154B52
:100830009B689360134B154A5A60124A114B1B6810
:1008400043F08073136000BF0E4B1B6803F000730E
:10085000002BF9D00B4A0B4B9B6823F003039360EA
:10086000084A084B9B6843F00203936000BF054BA6
:100870009B6803F00C03082BF9D100BF0C37BD4671
:1008800080BC7047003802400070004010544007A0
:1008900080B483B000AF78600B46FB70FB78002B10
:1008A00006D00949084B1A6B7B6813430B6306E0BB
:1008B0000549054B1A6B7B68DB4313400B6300BF94
:1008C0000C37BD4680BC704700380240024B13B164
:1008D000024800F005B8704700000000ED0800086D
:1008E000002301461A46184600F014B838B5074DE3
:1008F000074C2C1BA41005D0013C55F8043D98472B
:10090000002CF9D1BDE8384000F05CB83404002078
:10091000300400202DE9F047254C2568D5F84841E2
:100920000646884692469946C4B360681F2817DC7D
:10093000431C76B104EB80050122C5F888A0D4F8E9
:10094000881182401143022EC4F88811C5F808911D
:100950001ED00230636044F820800020BDE8F0879C
:10096000144B03B34FF4C870AFF300800446D0B10A
:10097000D5F84831002780E88800C5F84841384656
:100980000123C4F88871C4F88C71002EE1D0D1E73E
:10099000D4F88C110A43C4F88C21DAE705F5A67463
:1009A000C5F84841C1E74FF0FF30BDE8F08700BF10
:1009B000D409000800000000F8B500BFF8BC08BC6E
:1009C0009E467047F8B500BFF8BC08BC9E4670470D
:0809D0004300000000000020BC
:1009D80000000000EC02002054030020BC030020AB
:1009E80000000000000000000000000000000000FF
:1009F80000000000000000000000000000000000EF
:100A080000000000D00900080000000000000000FD
:100A180000000000000000000000000000000000CE
:100A280000000000000000000000000000000000BE
:100A380000000000000000000000000000000000AE
:100A4800000000000000000000000000000000009E
:100A5800000000000000000000000000000000008E
:100A6800000000000000000000000000000000007E
:100A7800000000000000000001000000000000006D
:100A88000E33CDAB34126DE6ECDE05000B00000032
:100A9800000000000000000000000000000000004E
:100AA800000000000000000000000000000000003E
:100AB800000000000000000000000000000000002E
:100AC800000000000000000000000000000000001E
:100DF8000000000000000000CD080008AD01000858
:080E0800890100080000000050
:0400000508000000EF
:00000001FF
