:020000040800F2
:100000000000022079060008BD060008BD060008B1
:10001000BD060008BD060008BD060008000000007F
:10002000000000000000000000000000BD06000805
:10003000BD06000800000000BD060008BD0600085F
:10004000BD060008BD060008BD060008BD06000884
:10005000BD060008BD060008BD060008BD06000874
:10006000BD060008BD060008BD060008BD06000864
:10007000BD060008BD060008BD060008BD06000854
:10008000BD060008BD060008BD060008BD06000844
:10009000BD060008BD060008BD060008BD06000834
:1000A000BD060008BD060008BD060008BD06000824
:1000B000BD060008BD060008BD060008BD06000814
:1000C000BD060008BD060008BD060008BD06000804
:1000D000BD060008BD060008BD060008BD060008F4
:1000E000BD060008BD060008BD060008BD060008E4
:1000F000BD060008BD060008BD060008BD060008D4
:10010000BD060008BD060008BD060008BD060008C3
:10011000BD060008BD060008BD060008BD060008B3
:10012000BD060008BD060008BD060008BD060008A3
:10013000BD060008BD060008BD060008BD06000893
:10014000BD060008BD060008BD060008BD06000883
:10015000BD060008BD060008BD060008BD06000873
:10016000BD060008BD060008BD060008BD06000863
:10017000BD060008BD060008BD060008BD06000853
:10018000BD060008BD06000810B5054C237833B93C
:10019000044B13B10448AFF300800123237010BD5A
:1001A000600400200000000078240008084B10B50F
:1001B0001BB108490848AFF300800848036803B939
:1001C00010BD074B002BFBD0BDE81040184700BF07
:1001D0000000000064040020782400085C04002073
:1001E0000000000000F06CFA00F0B0FA00F0FEFA37
:1001F000DFF8807480B44FF002004FF400614FF0DC
:10020000010200F049FB4FF002004FF480614FF013
:10021000000200F041FB4FF001004FF400614FF08D
:10022000000200F039FB4FF001004FF480614FF005
:10023000010200F031FB80BC00F014FA80B44FF0F2
:1002400002004FF400614FF0000200F025FB4FF078
:1002500002004FF480614FF0010200F01DFB4FF0EF
:1002600001004FF400614FF0000200F015FB4FF069
:1002700001004FF480614FF0010200F00DFB80BCE3
:1002800000F0F0F980B480B44FF002004FF4006148
:100290004FF0000200F000FB4FF002004FF48061CD
:1002A0004FF0010200F0F8FA4FF001004FF4006146
:1002B0004FF0010200F0F0FA4FF001004FF48061BE
:1002C0004FF0000200F0E8FA80BC00F0CBF980B4F7
:1002D0004FF002004FF400614FF0010200F0DCFA31
:1002E0004FF002004FF480614FF0000200F0D4FAAA
:1002F0004FF001004FF400614FF0010200F0CCFA22
:100300004FF001004FF480614FF0000200F0C4FA9A
:1003100080BC00F0A7F94FF000004FF001014FEA58
:1003200001114FEAC1034FEA41244FEA81252544D8
:100330001D4429444FF0000200F0AEFA4FF00000D7
:1003400000F0F2FA4FEA80614FEAD171002906D03D
:100350004FEA00414FEAD171002903D005E04FF088
:1003600000041DE04FF002041AE04FF0010000F01D
:10037000DBFA4FEA00714FEAD171002900D002E0A8
:100380004FF003040CE04FF0020000F0CDFA4FEA0A
:1003900080614FEAD171002900D0CFE74FF001040E
:1003A0004FF000004FF0010246F2100100F074FA25
:1003B0004FF000004FF000024FF0800100F06CFAA7
:1003C000002C05D0012C0FD0022C19D0032C23D0E7
:1003D0004FF0000000F0A8FA4FEA80614FEAD171B7
:1003E000002900F0F38022E04FF0020000F09CFAB8
:1003F0004FEA80614FEAD171002900F0EC8016E0ED
:100400004FF0000000F090FA4FEA00414FEAD1713E
:10041000002900F0E5800AE04FF0010000F084FAC6
:100420004FEA00714FEAD171002900F0DE804FF0F1
:1004300000004FF0010244F2900100F02DFA4FF05D
:1004400000004FF000024FF4005100F025FA002C9C
:1004500005D0012C0FD0022C19D0032C23D04FF043
:10046000000000F061FA4FEA80614FEAD171002983
:1004700000F0C08022E04FF0020000F055FA4FEA91
:1004800080614FEAD171002900F0B98016E04FF089
:10049000000000F049FA4FEA00414FEAD17100290B
:1004A00000F0B2800AE04FF0010000F03DFA4FEAA0
:1004B00000714FEAD171002900F0AB804FF00000CD
:1004C0004FF0010242F2900100F0E6F94FF0000017
:1004D0004FF000024FF4804100F0DEF9002C05D00F
:1004E000012C0FD0022C19D0032C22D04FF0000089
:1004F00000F01AFA4FEA80614FEAD171002900F04A
:100500008D8020E04FF0020000F00EFA4FEA80618B
:100510004FEAD171002900F0848014E04FF0000010
:1005200000F002FA4FEA00414FEAD17100297DD074
:1005300009E04FF0010000F0F7F94FEA00714FEACF
:10054000D171002977D04FF000004FF001024FF435
:10055000C14100F0A1F94FF000004FF000024FF050
:10056000100100F099F9002C05D0012C0ED0022CBE
:1005700017D0032C20D04FF0000000F0D5F94FEA3F
:1005800080614FEAD17100295AD0DCE74FF00200B8
:1005900000F0CAF94FEA80614FEAD171002952D0C8
:1005A000D1E74FF0000000F0BFF94FEA00414FEAF9
:1005B000D17100294CD0C6E74FF0010000F0B4F92A
:1005C0004FEA00714FEAD171002946D04FF0410047
:1005D00000F0D0F99FE64FF0420000F0CBF99AE628
:1005E0004FF0430000F0C6F995E64FF0440000F0EC
:1005F000C1F990E64FF0330000F0BCF98BE64FF004
:10060000360000F0B7F986E64FF0390000F0B2F995
:1006100081E64FF0230000F0ADF97CE607F16407B6
:10062000E8E54FF0350000F0A5F974E64FF038002A
:1006300000F0A0F96FE64FF0300000F09BF96AE699
:10064000A7F16407D6E54FF0340000F093F962E6B5
:100650004FF0370000F08EF95DE64FF02A0000F011
:1006600089F958E600B53E46002E02D0A6F10106F3
:10067000FAE700BD20A10700002103E00A4B5B5808
:100680004350043109480A4B42189A42F6D3094AAA
:1006900002E0002342F8043B074B9A42F9D300F0F2
:1006A00095F9FFF79FFD70477824000800000020AF
:1006B00060040020600400207C040020FEE70000AD
:1006C00080B588B000AF01214FF4802000F0C8FD54
:1006D0000121022000F06AFD4FF44063BB61022358
:1006E0003B7702237B770023BB770123FB7707F15E
:1006F00018031946134801F043F807220A2111484C
:1007000001F0ACF907220B210E4801F0A7F94FF4D4
:100710001653BB600023BB810023FB8100233B8277
:100720000023BB820C237B8207F10803194606488D
:1007300001F046FA0121044801F056FB00BF2037C2
:10074000BD4680BD000402400048004080B582B034
:1007500000AF0121012000F029FD0121022000F05D
:1007600025FD0121042000F021FD46F290033B60AD
:1007700001233B710023BB710223FB7100237B71BA
:100780003B461946164800F0FBFF4FF440533B60D0
:100790003B461946134800F0F3FF48F220033B6044
:1007A00000233B710023BB710123FB7100237B718C
:1007B0003B4619460A4800F0E3FF08233B603B46EE
:1007C0001946094800F0DCFF20233B603B461946F0
:1007D000044800F0D5FF00BF0837BD4680BD00BF0C
:1007E00000000240000802400004024080B582B0D0
:1007F00000AF0121022000F0D9FC0121042000F00B
:10080000D5FC4FF440633B6001233B710023BB7177
:100810000223FB7100237B713B4619460D4800F013
:10082000AFFF3B4619460C4800F0AAFF40233B604F
:1008300000233B710023BB710123FB7100237B71FB
:100840003B461946034800F09BFF00BF0837BD46F2
:1008500080BD00BF000402400008024080B582B0A5
:1008600000AF0121042000F0A1FC4FF440533B6095
:1008700001233B710023BB710223FB7100237B71B9
:100880003B461946034800F07BFF00BF0837BD46D2
:1008900080BD00BF0008024080B582B000AF0346B3
:1008A000FB800B46BB801346FB70FB88012B13D0EB
:1008B000022B20D0002B00D02CE0FB78002B05D0A1
:1008C000BB881946154801F071F823E0BB8819462A
:1008D000124801F079F81DE0FB78002B05D0BB88A9
:1008E00019460F4801F062F814E0BB8819460C481D
:1008F00001F06AF80EE0FB78002B05D0BB881946A2
:10090000084801F053F804E0BB881946054801F097
:100910005BF800BF00BF0837BD4680BD0000024045
:10092000000402400008024080B582B000AF0346D8
:10093000FB80FB88012B08D0022B0BD0002B0ED1A3
:10094000094801F001F8034609E0084800F0FCFFFF
:10095000034604E0064800F0F7FF0346FFE71846A9
:100960000837BD4680BD00BF0000024000040240C1
:100970000008024080B582B000AF0346FB7100BFA3
:10098000084B1B6803F04003002BF9D0FB79DBB266
:100990009BB21946034801F093FA00BF0837BD46E1
:1009A00080BD00BF0048004080B400AF00BF064BD0
:1009B0001B6803F02003002BF9D0034B5B68DBB20C
:1009C0001846BD4680BC70470048004080B500AF67
:1009D000124A124B1B6843F0010313600F4B0022B5
:1009E0009A600E4A0D4B1B6823F0847323F4803306
:1009F00013600A4B0A4A5A60084A084B1B6823F4E2
:100A000080231360054B0022DA6000F087F8054B65
:100A10004FF000629A6000BF80BD00BF0038024006
:100A20001030002400ED00E080B487B000AF002358
:100A30003B6100237B610223FB600023BB60022338
:100A40007B60324B9B6803F00C033B613B69042BDA
:100A500007D0082B09D0002B3FD12D4B2D4A1A600F
:100A60003FE02B4B2B4A1A603BE0284B5B6803F4BA
:100A700080039B0DBB60254B5B6803F03F037B60ED
:100A8000BB68002B0DD0234A7B68B2FBF3F21F4BEF
:100A9000596847F6C0730B409B0903FB02F37B6167
:100AA0000CE01C4A7B68B2FBF3F2184B596847F61E
:100AB000C0730B409B0903FB02F37B61134B5B6824
:100AC00003F440331B0C01335B00FB607A69FB6865
:100AD000B2FBF3F30E4A136003E00D4B0D4A1A60AC
:100AE00000BF0A4B9B6803F0F0031B090A4AD35C62
:100AF000DBB23B61064B1A683B6922FA03F3044AF6
:100B0000136000BF1C37BD4680BC704700380240F0
:100B1000000000200024F4000400002080B483B012
:100B200000AF00237B6000233B602D4A2C4B1B68E9
:100B300043F4803313602A4B1B6803F400333B609B
:100B40007B6801337B603B68002B03D17B68B3F586
:100B5000A04FF0D1224B1B6803F40033002B02D0CE
:100B600001233B6001E000233B603B68012B32D155
:100B70001B4A1B4B1B6C43F080531364194A194BDF
:100B80001B6843F480431360154A154B9B689360C0
:100B9000134B154A5A60124A114B1B6843F080737D
:100BA000136000BF0E4B1B6803F00073002BF9D0DD
:100BB0000B4A0B4B9B6823F003039360084A084BD6
:100BC0009B6843F00203936000BF054B9B6803F0F2
:100BD0000C03082BF9D100BF0C37BD4680BC704711
:100BE00000380240007000401054400780B400AF4D
:100BF000124A124B1B6843F0010313600F4B002293
:100C00009A600E4A0D4B1B6823F0A85323F410235F
:100C100013600A4B0A4A5A60084B0A4AC3F88420F8
:100C2000064A064B1B6823F480231360034B002203
:100C3000DA6000BFBD4680BC704700BF003802408C
:100C4000103000240030002080B483B000AF034691
:100C5000FB71054B00221A70034AFB79137000BF29
:100C60000C37BD4680BC70470238024080B582B068
:100C700000AF00233B600023FB710023BB713120D8
:100C800000F07CFC0346BB713B6801333B603B6872
:100C9000B3F5A04F02D0BB79002BF0D0312000F08B
:100CA0006DFC0346002B02D00123FB7101E0002301
:100CB000FB71FB7918460837BD4680BD80B485B00E
:100CC00000AF0346FB710023FB600A4B1B68FB600F
:100CD000FB6823F0F803FB60FB79DB00FA68134341
:100CE000FB60044AFB68136000BF1437BD4680BC3C
:100CF000704700BF0038024080B483B000AF0346A5
:100D0000FB71044AFB79136000BF0C37BD4680BC01
:100D1000704700BF0000474280B483B000AF034675
:100D2000FB710C4B00221A700A4B00221A70FB79DF
:100D3000012B02D0042B04D007E0064B01221A70CD
:100D400003E0044B05221A7000BF00BF0C37BD46FC
:100D500080BC70477038024080B483B000AF034657
:100D6000FB71044AFB79136000BF0C37BD4680BCA1
:100D7000704700BF800E474280B485B000AFF86076
:100D8000B9607A603B600A497B689A01BB681A4384
:100D90003B685B08013B1B041A43FB681A43BB69B1
:100DA0001B0613434B6000BF1437BD4680BC704721
:100DB0000038024080B483B000AF0346FB71044AA0
:100DC000FB79136000BF0C37BD4680BC704700BF85
:100DD0006000474280B483B000AF0346FB71044A11
:100DE000FB79136000BF0C37BD4680BC704700BF65
:100DF0006800474280B483B000AF0346FB71044AE9
:100E0000FB79136000BF0C37BD4680BC704700BF44
:100E10004C00474280B485B000AF78603960002351
:100E2000FB600A4B9B68FB60FB6823F0EC63FB6094
:100E30007A683B681343FA681343FB60034AFB6814
:100E4000936000BF1437BD4680BC70470038024035
:100E500080B485B000AF786039600023FB600A4B36
:100E60009B68FB60FB6823F07843FB607A683B6813
:100E70001343FA681343FB60034AFB68936000BFA7
:100E80001437BD4680BC70470038024080B485B03E
:100E900000AF78600023FB60094B9B68FB60FB6838
:100EA00023F00303FB60FA687B681343FB60044A8A
:100EB000FB68936000BF1437BD4680BC704700BF1D
:100EC0000038024080B400AF044B9B68DBB203F0F3
:100ED0000C03DBB21846BD4680BC704700380240A8
:100EE00080B485B000AF78600023FB60094B9B683D
:100EF000FB60FB6823F0F003FB60FA687B68134338
:100F0000FB60044AFB68936000BF1437BD4680BC99
:100F1000704700BF0038024080B485B000AF7860F1
:100F20000023FB60094B9B68FB60FB6823F4E053E4
:100F3000FB60FA687B681343FB60044AFB689360BC
:100F400000BF1437BD4680BC704700BF0038024068
:100F500080B485B000AF78600023FB60094B9B68CC
:100F6000FB60FB6823F46043FB607B68DB00FA688E
:100F70001343FB60034AFB68936000BF1437BD4610
:100F800080BC70470038024080B489B000AF786000
:100F90000023BB6100237B610023FB6102233B61D3
:100FA0000023FB600223BB60484B9B6803F00C03EB
:100FB000BB61BB69042B07D0082B09D0002B3FD1A4
:100FC0007B68434A1A603FE07B68414A1A603BE015
:100FD0003E4B5B6803F480039B0DFB603B4B5B68FF
:100FE00003F03F03BB60FB68002B0DD0384ABB68A1
:100FF000B2FBF3F2354B596847F6C0730B409B09BF
:1010000003FB02F3FB610CE0314ABB68B2FBF3F275
:101010002E4B596847F6C0730B409B0903FB02F344
:10102000FB612A4B5B6803F440331B0C01335B000C
:101030003B61FA693B69B2FBF3F27B681A6003E03B
:101040007B68234A1A6000BF204B9B6803F0F003C3
:10105000BB61BB691B09BB611E4ABB6913441B789A
:10106000DBB27B617B681A687B69DA407B685A6017
:10107000164B9B6803F4E053BB61BB699B0ABB61E1
:10108000144ABB6913441B78DBB27B617B685A68E6
:101090007B69DA407B689A600C4B9B6803F4604381
:1010A000BB61BB695B0BBB610A4ABB6913441B781C
:1010B000DBB27B617B685A687B69DA407B68DA6007
:1010C00000BF2437BD4680BC704700BF00380240D7
:1010D0000024F4001400002080B485B000AF7860D4
:1010E0000023FB607B6803F44073B3F5407F11D1AC
:1010F0000F4B9B68FB60FB6823F4F813FB607B6875
:1011000023F0704323F44073FA681343FB60084AEA
:10111000FB6893600649064B1A6F7B68C3F30B03A9
:1011200013430B6700BF1437BD4680BC704700BF38
:101130000038024080B483B000AF0346FB71044A1C
:10114000FB79136000BF0C37BD4680BC704700BF01
:101150003C0E474280B483B000AF0346FB71044AA3
:10116000FB79136000BF0C37BD4680BC704700BFE1
:10117000400E474280B483B000AF7860034A7B687A
:10118000136000BF0C37BD4680BC70475C0147420E
:1011900080B483B000AF7860034A7B68136000BFFF
:1011A0000C37BD4680BC7047E011474280B483B025
:1011B00000AF78600B46FB70FB78002B06D0094926
:1011C000084B1A6B7B6813430B6306E00549054B1C
:1011D0001A6B7B68DB4313400B6300BF0C37BD46C3
:1011E00080BC70470038024080B483B000AF7860A4
:1011F0000B46FB70FB78002B06D00949084B5A6B55
:101200007B6813434B6306E00549054B5A6B7B68CB
:10121000DB4313404B6300BF0C37BD4680BC7047B7
:101220000038024080B483B000AF78600B46FB709A
:10123000FB78002B06D00949084B9A6B7B68134357
:101240008B6306E00549054B9A6B7B68DB431340D3
:101250008B6300BF0C37BD4680BC7047003802402E
:1012600080B483B000AF78600B46FB70FB78002B36
:1012700006D00949084B1A6C7B6813430B6406E0DF
:101280000549054B1A6C7B68DB4313400B6400BFB8
:101290000C37BD4680BC70470038024080B483B034
:1012A00000AF78600B46FB70FB78002B06D0094935
:1012B000084B5A6C7B6813434B6406E00549054BA9
:1012C0005A6C7B68DB4313404B6400BF0C37BD4650
:1012D00080BC70470038024080B483B000AF7860B3
:1012E0000B46FB70FB78002B06D00949084B1A69A6
:1012F0007B6813430B6106E00549054B1A697B685F
:10130000DB4313400B6100BF0C37BD4680BC704708
:101310000038024080B483B000AF78600B46FB70A9
:10132000FB78002B06D00949084B5A697B681343A8
:101330004B6106E00549054B5A697B68DB43134066
:101340004B6100BF0C37BD4680BC7047003802407F
:1013500080B483B000AF78600B46FB70FB78002B45
:1013600006D00949084B9A697B6813438B6106E0F4
:101370000549054B9A697B68DB4313408B6100BFCD
:101380000C37BD4680BC70470038024080B483B043
:1013900000AF78600B46FB70FB78002B06D0094944
:1013A000084B1A6A7B6813430B6206E00549054B3C
:1013B0001A6A7B68DB4313400B6200BF0C37BD46E3
:1013C00080BC70470038024080B483B000AF7860C2
:1013D0000B46FB70FB78002B06D00949084B5A6A74
:1013E0007B6813434B6206E00549054B5A6A7B68EC
:1013F000DB4313404B6200BF0C37BD4680BC7047D7
:101400000038024080B483B000AF78600B46FB70B8
:10141000FB78002B06D00949084B1A6D7B681343F3
:101420000B6506E00549054B1A6D7B68DB431340ED
:101430000B6500BF0C37BD4680BC704700380240CA
:1014400080B483B000AF78600B46FB70FB78002B54
:1014500006D00949084B5A6D7B6813434B6506E07B
:101460000549054B5A6D7B68DB4313404B6500BF54
:101470000C37BD4680BC70470038024080B483B052
:1014800000AF78600B46FB70FB78002B06D0094953
:10149000084B9A6D7B6813438B6506E00549054B45
:1014A0009A6D7B68DB4313408B6500BF0C37BD46EC
:1014B00080BC70470038024080B483B000AF7860D1
:1014C0000B46FB70FB78002B06D00949084B1A6EBF
:1014D0007B6813430B6606E00549054B1A6E7B6873
:1014E000DB4313400B6600BF0C37BD4680BC704722
:1014F0000038024080B483B000AF78600B46FB70C8
:10150000FB78002B06D00949084B5A6E7B681343C1
:101510004B6606E00549054B5A6E7B68DB4313407A
:101520004B6600BF0C37BD4680BC70470038024098
:1015300080B483B000AF03460A46FB711346BB710B
:10154000BB79002B08D00C490B4B1B78DAB2FB7926
:101550001343DBB20B7009E00749074B1B78DAB283
:10156000FB79DB43DBB21340DBB20B7000BF0C37FF
:10157000BD4680BC704700BF0D38024080B487B0C4
:1015800000AF0346FB710023FB6000237B61002357
:10159000FB74FB795B09DBB2FB60FB68012B03D1B9
:1015A000124B1B687B6109E0FB68022B03D10F4BD8
:1015B0001B6F7B6102E00D4B5B6F7B61FB7903F07E
:1015C0001F03FB607A69FB6822FA03F303F001034F
:1015D000002B02D00123FB7401E00023FB74FB7C91
:1015E00018461C37BD4680BC704700BF003802401B
:1015F00080B400AF044A044B5B6F43F080735367C1
:1016000000BFBD4680BC70470038024080B485B042
:1016100000AF0346FB710023FB73084BDA68FB79CC
:101620001340002B02D00123FB7301E00023FB7366
:10163000FB7B18461437BD4680BC7047003802401B
:1016400080B483B000AF0346FB71044AFB7913708A
:1016500000BF0C37BD4680BC704700BF0E3802404B
:1016600080B582B000AF78607B683C4A934208D175
:1016700001210120FFF730FE00210120FFF72CFEA1
:1016800068E07B68364A934208D101210220FFF7C7
:1016900023FE00210220FFF71FFE5BE07B68314A3A
:1016A000934208D101210420FFF716FE00210420F7
:1016B000FFF712FE4EE07B682B4A934208D10121CE
:1016C0000820FFF709FE00210820FFF705FE41E092
:1016D0007B68264A934208D101211020FFF7FCFDC8
:1016E00000211020FFF7F8FD34E07B68204A934288
:1016F00008D101212020FFF7EFFD00212020FFF776
:10170000EBFD27E07B681B4A934208D10121402072
:10171000FFF7E2FD00214020FFF7DEFD1AE07B68C5
:10172000154A934208D101218020FFF7D5FD002101
:101730008020FFF7D1FD0DE07B68104A934209D16C
:1017400001214FF48070FFF7C7FD00214FF4807036
:10175000FFF7C2FD00BF0837BD4680BD0000024054
:101760000004024000080240000C02400010024049
:101770000014024000180240001C024000200240F9
:1017800080B487B000AF7860396000237B610023AC
:101790003B610023FB6000237B6176E001227B69D3
:1017A00002FA03F33B613B681A683B691340FB6034
:1017B000FA683B699A4265D17B681A687B695B006D
:1017C000032101FA03F3DB431A407B681A607B684C
:1017D0001A683B681B7919467B695B0001FA03F3C1
:1017E0001A437B681A603B681B79012B03D03B6866
:1017F0001B79022B2ED17B689A687B695B000321E1
:1018000001FA03F3DB431A407B689A607B689A68AD
:101810003B685B7919467B695B0001FA03F31A4365
:101820007B689A607B685A687B699BB2012101FAE8
:1018300003F3DB431A407B685A607B685A683B6855
:101840009B7919467B699BB201FA03F39BB21A4359
:101850007B685A607B68DA687B699BB25B00032116
:1018600001FA03F3DB431A407B68DA607B68DA68CD
:101870003B68DB7919467B695B0001FA03F31A4385
:101880007B68DA607B6901337B617B690F2B85D9CB
:1018900000BF1C37BD4680BC704700BF80B483B01A
:1018A00000AF78607B684FF6FF721A607B68002299
:1018B0001A717B6800225A717B6800229A717B68DA
:1018C0000022DA7100BF0C37BD4680BC704700BFF4
:1018D00080B485B000AF78600B467B804FF48033D6
:1018E000FB607A88FB681343FB60FA687B68DA6107
:1018F0007A887B68DA61FA687B68DA617B68DB6921
:10190000FB607B68DB69FB6000BF1437BD4680BCB1
:10191000704700BF80B485B000AF78600B467B8015
:101920000023FB737B681A697B881340002B02D06D
:101930000123FB7301E00023FB73FB7B1846143784
:10194000BD4680BC704700BF80B483B000AF7860F4
:101950007B681B699BB218460C37BD4680BC70473C
:1019600080B485B000AF78600B467B800023FB73AA
:101970007B685A697B881340002B02D00123FB73DC
:1019800001E00023FB73FB7B18461437BD4680BC87
:10199000704700BF80B483B000AF78607B685B693C
:1019A0009BB218460C37BD4680BC704780B483B0EC
:1019B00000AF78600B467B807A887B689A6100BFB5
:1019C0000C37BD4680BC704780B483B000AF7860F0
:1019D0000B467B807B881B041A467B689A6100BF9C
:1019E0000C37BD4680BC704780B483B000AF7860D0
:1019F0000B467B8013467B707B78002B03D07A8864
:101A00007B689A6104E07B881B041A467B689A61B4
:101A100000BF0C37BD4680BC704700BF80B483B0A8
:101A200000AF78600B467B807A887B685A6100BF84
:101A30000C37BD4680BC704780B483B000AF78607F
:101A40000B467B807B685A697B885A407B685A6169
:101A500000BF0C37BD4680BC704700BF80B485B066
:101A600000AF78600B467B8013467B700023FB60E1
:101A70000023BB607A787B8803F007039B0002FA9F
:101A800003F3FB607B88DB089BB218467B88DB088E
:101A90009BB21A467B68083253F822207B8803F0F9
:101AA00007039B000F2101FA03F3DB4302EA030162
:101AB0007B6800F1080243F822107B88DB089BB2A8
:101AC0001A467B68083253F82220FB681343BB6038
:101AD0007B88DB089BB21A467B680832B96843F8FA
:101AE000221000BF1437BD4680BC704780B582B05D
:101AF00000AF78607B682C4A934208D10121102006
:101B0000FFF762FC00211020FFF75EFC47E07B68D6
:101B1000264A93420AD101214FF40030FFF736FCE8
:101B200000214FF40030FFF731FC38E07B68204A99
:101B300093420AD101214FF48020FFF727FC0021B6
:101B40004FF48020FFF722FC29E07B68194A93427A
:101B50000AD101214FF40020FFF718FC00214FF4B7
:101B60000020FFF713FC1AE07B68134A93420AD166
:101B700001214FF48010FFF709FC00214FF4801081
:101B8000FFF704FC0BE07B680C4A934207D101216C
:101B90002020FFF719FC00212020FFF715FC00BFD3
:101BA0000837BD4680BD00BF001001400044004022
:101BB00000480040004C004000500040001401402C
:101BC00080B58AB000AF7860396000237B62002363
:101BD0003B620023FB610023BB617B681B697B6266
:101BE0007B6A23F440537B623B68DB881A467B6A3E
:101BF00013437B627B6A9AB27B681A617B68DB68FD
:101C00007B627B6A23F4B05323F00C037B623B6856
:101C10009A883B681B8913439AB23B685B891343DC
:101C20009BB21A467B6A13437B627B6A9AB27B68DB
:101C3000DA607B685B697B627B6A23F440737B625A
:101C40003B689B891A467B6A13437B627B6A9AB224
:101C50007B685A6107F108031846FFF795F97B681E
:101C6000304A934203D07B682F4A934202D17B696A
:101C70003B6201E03B693B627B68DB6803F4004345
:101C8000002B0CD03A6A13469B0013449A001A4466
:101C90003B681B685B00B2FBF3F3FB610BE03A6A45
:101CA00013469B0013449A001A443B681B689B0030
:101CB000B2FBF3F3FB61FB691C4AA2FB03235B0944
:101CC0001B017B627B6A1B09642202FB03F3FA6936
:101CD000D31ABB617B68DB6803F40043002B0CD094
:101CE000BB69DB003233114AA2FB03235B0903F01B
:101CF00007037A6A13437B620BE0BB691B01323333
:101D00000A4AA2FB03235B0903F00F037A6A134319
:101D10007B627B6A9AB27B689A6000BF2837BD46B7
:101D200080BD00BF00100140001401401F85EB5131
:101D300080B483B000AF78607B684FF416521A60AD
:101D40007B6800229A807B680022DA807B68002210
:101D50001A817B680C225A817B6800229A8100BF1D
:101D60000C37BD4680BC704780B485B000AF78604A
:101D700039600023FB607B681B69FB60FB6823F410
:101D80007063FB603B681A883B685B8813439AB2B8
:101D90003B689B8813439AB23B68DB8813439BB232
:101DA0001A46FB681343FB60FB689AB27B681A61B2
:101DB00000BF1437BD4680BC704700BF80B483B0FD
:101DC00000AF78607B6800221A807B6800225A800E
:101DD0007B6800229A807B680022DA8000BF0C3783
:101DE000BD4680BC704700BF80B483B000AF786050
:101DF0000B46FB70FB78002B06D07B68DB6843F456
:101E000000527B68DA6006E07B68DA684DF6FF73A3
:101E100013407A68D36000BF0C37BD4680BC704762
:101E200080B483B000AF78600B46FB707B689B6921
:101E300003F47F427B689A617B689A69FB781A4356
:101E40007B689A6100BF0C37BD4680BC704700BFFD
:101E500080B483B000AF78600B46FB70FB78002B3A
:101E600006D07B68DB6843F400427B68DA6005E0FB
:101E70007B68DB68C3F30E027B68DA6000BF0C3757
:101E8000BD4680BC704700BF80B483B000AF7860AF
:101E90000B46FB70FB78002B06D07B685B6943F434
:101EA00000627B685A6106E07B685A694FF2FF73F3
:101EB00013407A68536100BF0C37BD4680BC704741
:101EC00080B483B000AF78600B467B807B88C3F31F
:101ED00008027B685A6000BF0C37BD4680BC704763
:101EE00080B483B000AF78607B685B689BB2C3F35B
:101EF00008039BB218460C37BD4680BC704700BF34
:101F000080B483B000AF78600B46FB707B681A69C1
:101F10004FF6F07313407A6813617B681A69FB7897
:101F20001A437B681A6100BF0C37BD4680BC7047FE
:101F300080B483B000AF78600B46FB70FB78002B59
:101F400006D07B68DB6843F002027B68DA6006E05B
:101F50007B68DA684FF6FD7313407A68D36000BF80
:101F60000C37BD4680BC704780B483B000AF78604A
:101F70000B467B807B68DA684FF2FF7313407A6808
:101F8000D3607B68DA687B881A437B68DA6000BFBD
:101F90000C37BD4680BC704780B483B000AF78601A
:101FA0000B467B807B681A694FF6DF7313407A68B3
:101FB00013617B681A697B881A437B681A6100BFCA
:101FC0000C37BD4680BC704780B483B000AF7860EA
:101FD0000B46FB70FB78002B06D07B681B6943F433
:101FE00080427B681A6106E07B681A694BF6FF73D2
:101FF00013407A68136100BF0C37BD4680BC704740
:1020000080B483B000AF78607B68DB6843F0010286
:102010007B68DA6000BF0C37BD4680BC704700BFEC
:1020200080B483B000AF78600B46FB70FB78002B68
:1020300006D07B685B6943F008027B685A6106E062
:102040007B685A694FF6F77313407A68536100BF93
:102050000C37BD4680BC704780B483B000AF786059
:102060000B46FB707B689B69DAB27B689A617B6880
:102070009B69FA7892B2120292B21A437B689A6113
:1020800000BF0C37BD4680BC704700BF80B483B032
:1020900000AF78600B46FB70FB78002B06D07B68A6
:1020A0005B6943F020027B685A6106E07B685A69ED
:1020B0004FF6DF7313407A68536100BF0C37BD469B
:1020C00080BC704780B483B000AF78600B46FB7073
:1020D000FB78002B06D07B685B6943F010027B68BD
:1020E0005A6106E07B685A694FF6EF7313407A68CD
:1020F000536100BF0C37BD4680BC704780B483B0CD
:1021000000AF78600B467B807B685A694FF6FB73A3
:1021100013407A6853617B685A697B881A437B68ED
:102120005A6100BF0C37BD4680BC704780B483B095
:1021300000AF78600B46FB70FB78002B06D07B6805
:102140005B6943F002027B685A6106E07B685A696A
:102150004FF6FD7313407A68536100BF0C37BD46DC
:1021600080BC704780B483B000AF78600B467B8042
:1021700013467B707B78002B06D07B685A697B887E
:102180001A437B685A6107E07B685B697A88D243AF
:1021900092B21A407B685A6100BF0C37BD4680BCC2
:1021A000704700BF80B487B000AF78600B467B807B
:1021B00013467B7000233B610023FB600023BB6060
:1021C00000237B617B687B617B88DBB25B09DBB2D0
:1021D0003B617B8803F01F03FB600122FB6802FA6E
:1021E00003F3BB603B69012B03D17B690C337B613B
:1021F00009E03B69022B03D17B6910337B6102E06C
:102200007B6914337B617B78002B06D07B697A690C
:102210001168BA680A431A6006E07B697A69116836
:10222000BA68D2430A401A6000BF1C37BD4680BC62
:10223000704700BF80B485B000AF78600B467B80EC
:102240000023FB737B681A687B881340002B02D045
:102250000123FB7301E00023FB73FB7B184614375B
:10226000BD4680BC704700BF80B483B000AF7860CB
:102270000B467B807B88DB439BB21A467B681A60E7
:1022800000BF0C37BD4680BC704700BF80B487B02C
:1022900000AF78600B467B800023FB6000237B61EE
:1022A0000023BB600023FB747B88DBB25B09DBB2DD
:1022B000BB607B8803F01F037B6101227B6902FA0C
:1022C00003F37B61BB68012B05D17B68DB687A690E
:1022D00013407B610DE0BB68022B05D17B681B6955
:1022E0007A6913407B6104E07B685B697A6913401B
:1022F0007B617B881B0A9BB2FB600122FB6802FAB0
:1023000003F3FB607B681B68FA681340FB607B6922
:10231000002B05D0FB68002B02D00123FB7401E0E9
:102320000023FB74FB7C18461C37BD4680BC7047FD
:1023300080B485B000AF78600B467B800023FB81C2
:102340000023BB817B881B0AFB81FB89012202FAE7
:1023500003F3BB81BB89DB439BB21A467B681A60DF
:1023600000BF1437BD4680BC704700BF024B13B19D
:10237000024800F005B87047000000008D230008F7
:10238000002301461A46184600F014B838B5074D28
:10239000074C2C1BA41005D0013C55F8043D984770
:1023A000002CF9D1BDE8384000F05CB85C04002096
:1023B000580400202DE9F047254C2568D5F8484100
:1023C0000646884692469946C4B360681F2817DCC3
:1023D000431C76B104EB80050122C5F888A0D4F82F
:1023E000881182401143022EC4F88811C5F8089163
:1023F0001ED00230636044F820800020BDE8F087E2
:10240000144B03B34FF4C870AFF300800446D0B14F
:10241000D5F84831002780E88800C5F8484138469B
:102420000123C4F88871C4F88C71002EE1D0D1E783
:10243000D4F88C110A43C4F88C21DAE705F5A674A8
:10244000C5F84841C1E74FF0FF30BDE8F08700BF55
:102450007424000800000000F8B500BFF8BC08BCF8
:102460009E467047F8B500BFF8BC08BC9E46704752
:082470004300000028000020D9
:10247800007A030A000000000000000001020304C3
:102488000607080900000000010203040102030412
:1024980006070809000000000000000014030020DF
:1024A8007C030020E403002000000000000000007E
:1024B8000000000000000000000000000000000014
:1024C8000000000000000000000000007024000868
:1024D80000000000000000000000000000000000F4
:1024E80000000000000000000000000000000000E4
:1024F80000000000000000000000000000000000D4
:1025080000000000000000000000000000000000C3
:1025180000000000000000000000000000000000B3
:1025280000000000000000000000000000000000A3
:102538000000000000000000000000000000000093
:1025480001000000000000000E33CDAB34126DE630
:10255800ECDE05000B000000000000000000000099
:102568000000000000000000000000000000000063
:102578000000000000000000000000000000000053
:102588000000000000000000000000000000000043
:102598000000000000000000000000000000000033
:1028C8006D230008AD010008890100080000000020
:0400000508000000EF
:00000001FF
